{
  "address": "0x05ae3b36FD490CaB87CbcBEA2cb997819e195A7e",
  "abi": [
    {
      "inputs": [
        {
          "internalType": "address",
          "name": "vrfCoordinatorV2",
          "type": "address"
        },
        {
          "internalType": "uint256",
          "name": "entranceFee",
          "type": "uint256"
        },
        {
          "internalType": "bytes32",
          "name": "gasLine",
          "type": "bytes32"
        },
        {
          "internalType": "uint64",
          "name": "subscriptionId",
          "type": "uint64"
        },
        {
          "internalType": "uint32",
          "name": "callbackGasLimit",
          "type": "uint32"
        },
        {
          "internalType": "uint256",
          "name": "interval",
          "type": "uint256"
        }
      ],
      "stateMutability": "payable",
      "type": "constructor"
    },
    {
      "inputs": [
        {
          "internalType": "address",
          "name": "have",
          "type": "address"
        },
        {
          "internalType": "address",
          "name": "want",
          "type": "address"
        }
      ],
      "name": "OnlyCoordinatorCanFulfill",
      "type": "error"
    },
    {
      "inputs": [],
      "name": "Raffle__NOT_Enough_FEE",
      "type": "error"
    },
    {
      "inputs": [],
      "name": "Raffle__NotOpen",
      "type": "error"
    },
    {
      "inputs": [
        {
          "internalType": "uint256",
          "name": "Balance",
          "type": "uint256"
        },
        {
          "internalType": "uint256",
          "name": "participations",
          "type": "uint256"
        },
        {
          "internalType": "uint256",
          "name": "state",
          "type": "uint256"
        }
      ],
      "name": "Raffle__NotReady",
      "type": "error"
    },
    {
      "inputs": [],
      "name": "Raffle__TransferFailed",
      "type": "error"
    },
    {
      "anonymous": false,
      "inputs": [
        {
          "indexed": true,
          "internalType": "address",
          "name": "participation",
          "type": "address"
        }
      ],
      "name": "RaffleEntered",
      "type": "event"
    },
    {
      "anonymous": false,
      "inputs": [
        {
          "indexed": true,
          "internalType": "uint256",
          "name": "requestId",
          "type": "uint256"
        }
      ],
      "name": "RequestedWinner",
      "type": "event"
    },
    {
      "anonymous": false,
      "inputs": [
        {
          "indexed": true,
          "internalType": "address",
          "name": "winner",
          "type": "address"
        }
      ],
      "name": "WinnerAnnounced",
      "type": "event"
    },
    {
      "inputs": [
        {
          "internalType": "bytes",
          "name": "",
          "type": "bytes"
        }
      ],
      "name": "checkUpkeep",
      "outputs": [
        {
          "internalType": "bool",
          "name": "upkeepNeeded",
          "type": "bool"
        },
        {
          "internalType": "bytes",
          "name": "",
          "type": "bytes"
        }
      ],
      "stateMutability": "nonpayable",
      "type": "function"
    },
    {
      "inputs": [],
      "name": "enterRaffle",
      "outputs": [],
      "stateMutability": "payable",
      "type": "function"
    },
    {
      "inputs": [],
      "name": "getEnteranceFee",
      "outputs": [
        {
          "internalType": "uint256",
          "name": "",
          "type": "uint256"
        }
      ],
      "stateMutability": "view",
      "type": "function"
    },
    {
      "inputs": [],
      "name": "getInterval",
      "outputs": [
        {
          "internalType": "uint256",
          "name": "",
          "type": "uint256"
        }
      ],
      "stateMutability": "view",
      "type": "function"
    },
    {
      "inputs": [],
      "name": "getNumWords",
      "outputs": [
        {
          "internalType": "uint256",
          "name": "",
          "type": "uint256"
        }
      ],
      "stateMutability": "pure",
      "type": "function"
    },
    {
      "inputs": [],
      "name": "getNumberOfPlayers",
      "outputs": [
        {
          "internalType": "uint256",
          "name": "",
          "type": "uint256"
        }
      ],
      "stateMutability": "view",
      "type": "function"
    },
    {
      "inputs": [
        {
          "internalType": "uint256",
          "name": "index",
          "type": "uint256"
        }
      ],
      "name": "getParticipation",
      "outputs": [
        {
          "internalType": "address",
          "name": "",
          "type": "address"
        }
      ],
      "stateMutability": "view",
      "type": "function"
    },
    {
      "inputs": [],
      "name": "getPrevTimeStamp",
      "outputs": [
        {
          "internalType": "uint256",
          "name": "",
          "type": "uint256"
        }
      ],
      "stateMutability": "view",
      "type": "function"
    },
    {
      "inputs": [],
      "name": "getRecentWinner",
      "outputs": [
        {
          "internalType": "address",
          "name": "",
          "type": "address"
        }
      ],
      "stateMutability": "view",
      "type": "function"
    },
    {
      "inputs": [],
      "name": "getRequestConfirmations",
      "outputs": [
        {
          "internalType": "uint256",
          "name": "",
          "type": "uint256"
        }
      ],
      "stateMutability": "pure",
      "type": "function"
    },
    {
      "inputs": [],
      "name": "getState",
      "outputs": [
        {
          "internalType": "enum Raffle.State",
          "name": "",
          "type": "uint8"
        }
      ],
      "stateMutability": "view",
      "type": "function"
    },
    {
      "inputs": [],
      "name": "i_owner",
      "outputs": [
        {
          "internalType": "address payable",
          "name": "",
          "type": "address"
        }
      ],
      "stateMutability": "view",
      "type": "function"
    },
    {
      "inputs": [
        {
          "internalType": "bytes",
          "name": "",
          "type": "bytes"
        }
      ],
      "name": "performUpkeep",
      "outputs": [],
      "stateMutability": "nonpayable",
      "type": "function"
    },
    {
      "inputs": [
        {
          "internalType": "uint256",
          "name": "requestId",
          "type": "uint256"
        },
        {
          "internalType": "uint256[]",
          "name": "randomWords",
          "type": "uint256[]"
        }
      ],
      "name": "rawFulfillRandomWords",
      "outputs": [],
      "stateMutability": "nonpayable",
      "type": "function"
    }
  ],
  "transactionHash": "0x18c1d0dc8d9267b8a2959c2c552bc83f94cb75732b8246ca2691ff5f40b26152",
  "args": [
    "0x8103B0A8A00be2DDC778e6e7eaa21791Cd364625",
    "100000000000000000",
    "0x474e34a077df58807dbe9c96d3c009b23b3c6d0cce433e59bbf5b34f823bc56c",
    "5309",
    "500000",
    "30"
  ],
  "numDeployments": 1,
  "solcInputHash": "4368e74c38245c30c307b72fe35fd400",
  "bytecode": "0x61018060405260405162001a5238038062001a5283398181016040528101906200002a9190620002bb565b858073ffffffffffffffffffffffffffffffffffffffff1660808173ffffffffffffffffffffffffffffffffffffffff1681525050508460c081815250508573ffffffffffffffffffffffffffffffffffffffff1660e08173ffffffffffffffffffffffffffffffffffffffff16815250508361012081815250508163ffffffff166101408163ffffffff16815250506000600160146101000a81548160ff02191690836001811115620000e357620000e262000357565b5b0217905550426002819055508061016081815250503373ffffffffffffffffffffffffffffffffffffffff1660a08173ffffffffffffffffffffffffffffffffffffffff16815250508267ffffffffffffffff166101008167ffffffffffffffff168152505050505050505062000386565b600080fd5b600073ffffffffffffffffffffffffffffffffffffffff82169050919050565b600062000187826200015a565b9050919050565b62000199816200017a565b8114620001a557600080fd5b50565b600081519050620001b9816200018e565b92915050565b6000819050919050565b620001d481620001bf565b8114620001e057600080fd5b50565b600081519050620001f481620001c9565b92915050565b6000819050919050565b6200020f81620001fa565b81146200021b57600080fd5b50565b6000815190506200022f8162000204565b92915050565b600067ffffffffffffffff82169050919050565b620002548162000235565b81146200026057600080fd5b50565b600081519050620002748162000249565b92915050565b600063ffffffff82169050919050565b62000295816200027a565b8114620002a157600080fd5b50565b600081519050620002b5816200028a565b92915050565b60008060008060008060c08789031215620002db57620002da62000155565b5b6000620002eb89828a01620001a8565b9650506020620002fe89828a01620001e3565b95505060406200031189828a016200021e565b94505060606200032489828a0162000263565b93505060806200033789828a01620002a4565b92505060a06200034a89828a01620001e3565b9150509295509295509295565b7f4e487b7100000000000000000000000000000000000000000000000000000000600052602160045260246000fd5b60805160a05160c05160e0516101005161012051610140516101605161164a620004086000396000818161070d015261077b01526000610b7401526000610b3001526000610b5101526000610af4015260008181610415015261068d0152600081816107a101526109a501526000818161035501526103a9015261164a6000f3fe6080604052600436106100dd5760003560e01c806353a2c19a1161007f57806391ad27b41161005957806391ad27b414610290578063dba6335f146102bb578063e0e10549146102e6578063fd6673f514610311576100dd565b806353a2c19a146101fc5780635f1b0fd8146102275780636e04ff0d14610252576100dd565b80634585e33b116100bb5780634585e33b14610140578063473f1ddc14610169578063499006c714610194578063535bf50f146101d1576100dd565b80631865c57d146100e25780631fe543e31461010d5780632cfcc53914610136575b600080fd5b3480156100ee57600080fd5b506100f761033c565b6040516101049190610d48565b60405180910390f35b34801561011957600080fd5b50610134600480360381019061012f9190610f06565b610353565b005b61013e610413565b005b34801561014c57600080fd5b5061016760048036038101906101629190610fbd565b610582565b005b34801561017557600080fd5b5061017e610618565b60405161018b919061104b565b60405180910390f35b3480156101a057600080fd5b506101bb60048036038101906101b69190611066565b610642565b6040516101c8919061104b565b60405180910390f35b3480156101dd57600080fd5b506101e6610689565b6040516101f391906110a2565b60405180910390f35b34801561020857600080fd5b506102116106b1565b60405161021e91906110a2565b60405180910390f35b34801561023357600080fd5b5061023c6106be565b60405161024991906110a2565b60405180910390f35b34801561025e57600080fd5b5061027960048036038101906102749190611172565b6106cb565b604051610287929190611255565b60405180910390f35b34801561029c57600080fd5b506102a5610777565b6040516102b291906110a2565b60405180910390f35b3480156102c757600080fd5b506102d061079f565b6040516102dd91906112a6565b60405180910390f35b3480156102f257600080fd5b506102fb6107c3565b60405161030891906110a2565b60405180910390f35b34801561031d57600080fd5b506103266107cd565b60405161033391906110a2565b60405180910390f35b6000600160149054906101000a900460ff16905090565b7f000000000000000000000000000000000000000000000000000000000000000073ffffffffffffffffffffffffffffffffffffffff163373ffffffffffffffffffffffffffffffffffffffff161461040557337f00000000000000000000000000000000000000000000000000000000000000006040517f1cf993f40000000000000000000000000000000000000000000000000000000081526004016103fc9291906112c1565b60405180910390fd5b61040f82826107d9565b5050565b7f000000000000000000000000000000000000000000000000000000000000000034101561046d576040517f534821da00000000000000000000000000000000000000000000000000000000815260040160405180910390fd5b6000600181111561048157610480610cd1565b5b600160149054906101000a900460ff1660018111156104a3576104a2610cd1565b5b146104da576040517f1425571c00000000000000000000000000000000000000000000000000000000815260040160405180910390fd5b6000339080600181540180825580915050600190039060005260206000200160009091909190916101000a81548173ffffffffffffffffffffffffffffffffffffffff021916908373ffffffffffffffffffffffffffffffffffffffff1602179055503373ffffffffffffffffffffffffffffffffffffffff167f634f3211e3a4e43fee5a21ad9f87ca153b300fc78b1c557a2057dbe9c63bcb4760405160405180910390a2565b600061059c604051806020016040528060008152506106cb565b5090508061060b5747600080549050600160149054906101000a900460ff1660018111156105cd576105cc610cd1565b5b6040517fe5b5f098000000000000000000000000000000000000000000000000000000008152600401610602939291906112ea565b60405180910390fd5b610613610ac6565b505050565b6000600160009054906101000a900473ffffffffffffffffffffffffffffffffffffffff16905090565b600080828154811061065757610656611321565b5b9060005260206000200160009054906101000a900473ffffffffffffffffffffffffffffffffffffffff169050919050565b60007f0000000000000000000000000000000000000000000000000000000000000000905090565b6000600161ffff16905090565b6000600361ffff16905090565b6000606060008060018111156106e4576106e3610cd1565b5b600160149054906101000a900460ff16600181111561070657610705610cd1565b5b14905060007f00000000000000000000000000000000000000000000000000000000000000006002544261073a919061137f565b1190506000806000805490501190506000804711905083801561075a5750825b80156107635750805b801561076c5750815b955050505050915091565b60007f0000000000000000000000000000000000000000000000000000000000000000905090565b7f000000000000000000000000000000000000000000000000000000000000000081565b6000600254905090565b60008080549050905090565b60008080549050826000815181106107f4576107f3611321565b5b602002602001015161080691906113e2565b9050600080828154811061081d5761081c611321565b5b9060005260206000200160009054906101000a900473ffffffffffffffffffffffffffffffffffffffff16905080600160006101000a81548173ffffffffffffffffffffffffffffffffffffffff021916908373ffffffffffffffffffffffffffffffffffffffff1602179055506000600160146101000a81548160ff021916908360018111156108b1576108b0610cd1565b5b0217905550600067ffffffffffffffff8111156108d1576108d0610dc3565b5b6040519080825280602002602001820160405280156108ff5781602001602082028036833780820191505090505b5060009080519060200190610915929190610c2a565b504260028190555060008173ffffffffffffffffffffffffffffffffffffffff1660046003476109459190611413565b61094f9190611455565b60405161095b906114b7565b60006040518083038185875af1925050503d8060008114610998576040519150601f19603f3d011682016040523d82523d6000602084013e61099d565b606091505b5050905060007f000000000000000000000000000000000000000000000000000000000000000073ffffffffffffffffffffffffffffffffffffffff166004476109e79190611455565b6040516109f3906114b7565b60006040518083038185875af1925050503d8060008114610a30576040519150601f19603f3d011682016040523d82523d6000602084013e610a35565b606091505b50509050811580610a44575080155b15610a7b576040517fa1d04b3900000000000000000000000000000000000000000000000000000000815260040160405180910390fd5b8273ffffffffffffffffffffffffffffffffffffffff167f7ca8a224a5c666ded68ae58d3889480f723238757e1da0fc8b7371dd5bd4466660405160405180910390a2505050505050565b60018060146101000a81548160ff02191690836001811115610aeb57610aea610cd1565b5b021790555060007f000000000000000000000000000000000000000000000000000000000000000073ffffffffffffffffffffffffffffffffffffffff16635d3b1d307f00000000000000000000000000000000000000000000000000000000000000007f000000000000000000000000000000000000000000000000000000000000000060037f000000000000000000000000000000000000000000000000000000000000000060016040518663ffffffff1660e01b8152600401610bb595949392919061157f565b6020604051808303816000875af1158015610bd4573d6000803e3d6000fd5b505050506040513d601f19601f82011682018060405250810190610bf891906115e7565b9050807fb67476d1d38e93caac2ca37113122e613c199269c4cea0d39c67807a6442b40a60405160405180910390a250565b828054828255906000526020600020908101928215610ca3579160200282015b82811115610ca25782518260006101000a81548173ffffffffffffffffffffffffffffffffffffffff021916908373ffffffffffffffffffffffffffffffffffffffff16021790555091602001919060010190610c4a565b5b509050610cb09190610cb4565b5090565b5b80821115610ccd576000816000905550600101610cb5565b5090565b7f4e487b7100000000000000000000000000000000000000000000000000000000600052602160045260246000fd5b60028110610d1157610d10610cd1565b5b50565b6000819050610d2282610d00565b919050565b6000610d3282610d14565b9050919050565b610d4281610d27565b82525050565b6000602082019050610d5d6000830184610d39565b92915050565b6000604051905090565b600080fd5b600080fd5b6000819050919050565b610d8a81610d77565b8114610d9557600080fd5b50565b600081359050610da781610d81565b92915050565b600080fd5b6000601f19601f8301169050919050565b7f4e487b7100000000000000000000000000000000000000000000000000000000600052604160045260246000fd5b610dfb82610db2565b810181811067ffffffffffffffff82111715610e1a57610e19610dc3565b5b80604052505050565b6000610e2d610d63565b9050610e398282610df2565b919050565b600067ffffffffffffffff821115610e5957610e58610dc3565b5b602082029050602081019050919050565b600080fd5b6000610e82610e7d84610e3e565b610e23565b90508083825260208201905060208402830185811115610ea557610ea4610e6a565b5b835b81811015610ece5780610eba8882610d98565b845260208401935050602081019050610ea7565b5050509392505050565b600082601f830112610eed57610eec610dad565b5b8135610efd848260208601610e6f565b91505092915050565b60008060408385031215610f1d57610f1c610d6d565b5b6000610f2b85828601610d98565b925050602083013567ffffffffffffffff811115610f4c57610f4b610d72565b5b610f5885828601610ed8565b9150509250929050565b600080fd5b60008083601f840112610f7d57610f7c610dad565b5b8235905067ffffffffffffffff811115610f9a57610f99610f62565b5b602083019150836001820283011115610fb657610fb5610e6a565b5b9250929050565b60008060208385031215610fd457610fd3610d6d565b5b600083013567ffffffffffffffff811115610ff257610ff1610d72565b5b610ffe85828601610f67565b92509250509250929050565b600073ffffffffffffffffffffffffffffffffffffffff82169050919050565b60006110358261100a565b9050919050565b6110458161102a565b82525050565b6000602082019050611060600083018461103c565b92915050565b60006020828403121561107c5761107b610d6d565b5b600061108a84828501610d98565b91505092915050565b61109c81610d77565b82525050565b60006020820190506110b76000830184611093565b92915050565b600080fd5b600067ffffffffffffffff8211156110dd576110dc610dc3565b5b6110e682610db2565b9050602081019050919050565b82818337600083830152505050565b6000611115611110846110c2565b610e23565b905082815260208101848484011115611131576111306110bd565b5b61113c8482856110f3565b509392505050565b600082601f83011261115957611158610dad565b5b8135611169848260208601611102565b91505092915050565b60006020828403121561118857611187610d6d565b5b600082013567ffffffffffffffff8111156111a6576111a5610d72565b5b6111b284828501611144565b91505092915050565b60008115159050919050565b6111d0816111bb565b82525050565b600081519050919050565b600082825260208201905092915050565b60005b838110156112105780820151818401526020810190506111f5565b60008484015250505050565b6000611227826111d6565b61123181856111e1565b93506112418185602086016111f2565b61124a81610db2565b840191505092915050565b600060408201905061126a60008301856111c7565b818103602083015261127c818461121c565b90509392505050565b60006112908261100a565b9050919050565b6112a081611285565b82525050565b60006020820190506112bb6000830184611297565b92915050565b60006040820190506112d6600083018561103c565b6112e3602083018461103c565b9392505050565b60006060820190506112ff6000830186611093565b61130c6020830185611093565b6113196040830184611093565b949350505050565b7f4e487b7100000000000000000000000000000000000000000000000000000000600052603260045260246000fd5b7f4e487b7100000000000000000000000000000000000000000000000000000000600052601160045260246000fd5b600061138a82610d77565b915061139583610d77565b92508282039050818111156113ad576113ac611350565b5b92915050565b7f4e487b7100000000000000000000000000000000000000000000000000000000600052601260045260246000fd5b60006113ed82610d77565b91506113f883610d77565b925082611408576114076113b3565b5b828206905092915050565b600061141e82610d77565b915061142983610d77565b925082820261143781610d77565b9150828204841483151761144e5761144d611350565b5b5092915050565b600061146082610d77565b915061146b83610d77565b92508261147b5761147a6113b3565b5b828204905092915050565b600081905092915050565b50565b60006114a1600083611486565b91506114ac82611491565b600082019050919050565b60006114c282611494565b9150819050919050565b6000819050919050565b6114df816114cc565b82525050565b600067ffffffffffffffff82169050919050565b611502816114e5565b82525050565b600061ffff82169050919050565b61151f81611508565b82525050565b600063ffffffff82169050919050565b61153e81611525565b82525050565b6000819050919050565b600061156961156461155f84611508565b611544565b611525565b9050919050565b6115798161154e565b82525050565b600060a08201905061159460008301886114d6565b6115a160208301876114f9565b6115ae6040830186611516565b6115bb6060830185611535565b6115c86080830184611570565b9695505050505050565b6000815190506115e181610d81565b92915050565b6000602082840312156115fd576115fc610d6d565b5b600061160b848285016115d2565b9150509291505056fea26469706673582212209f71e84f7f0f9b43f536689347e7dd7382c408ae0792f30b61619ee958c4a02b64736f6c63430008130033",
  "devdoc": {
    "author": "Abdalrhman Mostafa & Patrick Collins",
    "details": "This implements the Chainlink VRF Version 2",
    "kind": "dev",
    "methods": {
      "checkUpkeep(bytes)": {
        "details": "This is the function that the Chainlink Keeper nodes call they look for `upkeepNeeded` to return True. the following should be true for this to return true: 1. The time interval has passed between raffle runs. 2. The lottery is open. 3. The contract has ETH. 4. Implicity, your subscription is funded with LINK."
      }
    },
    "title": "A sample Raffle Contract",
    "version": 1
  },
  "userdoc": {
    "kind": "user",
    "methods": {
      "checkUpkeep(bytes)": {
        "notice": "chainlink keeper to automaticlly trigger action and run functons depends on events or time  (keeper network automaticcly run our functions based on custome logic / time) , checkupkeep method run offchain , doesn't estimate gas from the blockchain ,  when returns it will perform upkeep on chain (generating data is off chain) argument datatype bytes means we could call even another functions"
      }
    },
    "notice": "This contract is for creating a sample raffle contract",
    "version": 1
  },
  "storageLayout": {
    "storage": [
      {
        "astId": 1165,
        "contract": "contracts/Raffle.sol:Raffle",
        "label": "s_participations",
        "offset": 0,
        "slot": "0",
        "type": "t_array(t_address_payable)dyn_storage"
      },
      {
        "astId": 1182,
        "contract": "contracts/Raffle.sol:Raffle",
        "label": "s_recentWinner",
        "offset": 0,
        "slot": "1",
        "type": "t_address"
      },
      {
        "astId": 1185,
        "contract": "contracts/Raffle.sol:Raffle",
        "label": "s_state",
        "offset": 20,
        "slot": "1",
        "type": "t_enum(State)1158"
      },
      {
        "astId": 1187,
        "contract": "contracts/Raffle.sol:Raffle",
        "label": "s_prevBlockTimeStamp",
        "offset": 0,
        "slot": "2",
        "type": "t_uint256"
      }
    ],
    "types": {
      "t_address": {
        "encoding": "inplace",
        "label": "address",
        "numberOfBytes": "20"
      },
      "t_address_payable": {
        "encoding": "inplace",
        "label": "address payable",
        "numberOfBytes": "20"
      },
      "t_array(t_address_payable)dyn_storage": {
        "base": "t_address_payable",
        "encoding": "dynamic_array",
        "label": "address payable[]",
        "numberOfBytes": "32"
      },
      "t_enum(State)1158": {
        "encoding": "inplace",
        "label": "enum Raffle.State",
        "numberOfBytes": "1"
      },
      "t_uint256": {
        "encoding": "inplace",
        "label": "uint256",
        "numberOfBytes": "32"
      }
    }
  }
}