{
  "address": "0x565cF517a4457C8d23Dce35a055Fd1c84B92A086",
  "abi": [
    {
      "inputs": [
        {
          "internalType": "address",
          "name": "vrfCoordinatorV2",
          "type": "address"
        },
        {
          "internalType": "uint256",
          "name": "entranceFee",
          "type": "uint256"
        },
        {
          "internalType": "bytes32",
          "name": "gasLine",
          "type": "bytes32"
        },
        {
          "internalType": "uint64",
          "name": "subscriptionId",
          "type": "uint64"
        },
        {
          "internalType": "uint32",
          "name": "callbackGasLimit",
          "type": "uint32"
        },
        {
          "internalType": "uint256",
          "name": "interval",
          "type": "uint256"
        }
      ],
      "stateMutability": "payable",
      "type": "constructor"
    },
    {
      "inputs": [
        {
          "internalType": "address",
          "name": "have",
          "type": "address"
        },
        {
          "internalType": "address",
          "name": "want",
          "type": "address"
        }
      ],
      "name": "OnlyCoordinatorCanFulfill",
      "type": "error"
    },
    {
      "inputs": [],
      "name": "Raffle__NOT_Enough_FEE",
      "type": "error"
    },
    {
      "inputs": [],
      "name": "Raffle__NotOpen",
      "type": "error"
    },
    {
      "inputs": [
        {
          "internalType": "uint256",
          "name": "Balance",
          "type": "uint256"
        },
        {
          "internalType": "uint256",
          "name": "participations",
          "type": "uint256"
        },
        {
          "internalType": "uint256",
          "name": "state",
          "type": "uint256"
        }
      ],
      "name": "Raffle__NotReady",
      "type": "error"
    },
    {
      "inputs": [],
      "name": "Raffle__TransferFailed",
      "type": "error"
    },
    {
      "anonymous": false,
      "inputs": [
        {
          "indexed": true,
          "internalType": "address",
          "name": "participation",
          "type": "address"
        }
      ],
      "name": "RaffleEntered",
      "type": "event"
    },
    {
      "anonymous": false,
      "inputs": [
        {
          "indexed": true,
          "internalType": "uint256",
          "name": "requestId",
          "type": "uint256"
        }
      ],
      "name": "RequestedWinner",
      "type": "event"
    },
    {
      "anonymous": false,
      "inputs": [
        {
          "indexed": true,
          "internalType": "address",
          "name": "winner",
          "type": "address"
        }
      ],
      "name": "WinnerAnnounced",
      "type": "event"
    },
    {
      "inputs": [
        {
          "internalType": "bytes",
          "name": "",
          "type": "bytes"
        }
      ],
      "name": "checkUpkeep",
      "outputs": [
        {
          "internalType": "bool",
          "name": "upkeepNeeded",
          "type": "bool"
        },
        {
          "internalType": "bytes",
          "name": "",
          "type": "bytes"
        }
      ],
      "stateMutability": "nonpayable",
      "type": "function"
    },
    {
      "inputs": [],
      "name": "enterRaffle",
      "outputs": [],
      "stateMutability": "payable",
      "type": "function"
    },
    {
      "inputs": [],
      "name": "getEnteranceFee",
      "outputs": [
        {
          "internalType": "uint256",
          "name": "",
          "type": "uint256"
        }
      ],
      "stateMutability": "view",
      "type": "function"
    },
    {
      "inputs": [],
      "name": "getInterval",
      "outputs": [
        {
          "internalType": "uint256",
          "name": "",
          "type": "uint256"
        }
      ],
      "stateMutability": "view",
      "type": "function"
    },
    {
      "inputs": [],
      "name": "getNumWords",
      "outputs": [
        {
          "internalType": "uint256",
          "name": "",
          "type": "uint256"
        }
      ],
      "stateMutability": "pure",
      "type": "function"
    },
    {
      "inputs": [],
      "name": "getNumberOfPlayers",
      "outputs": [
        {
          "internalType": "uint256",
          "name": "",
          "type": "uint256"
        }
      ],
      "stateMutability": "view",
      "type": "function"
    },
    {
      "inputs": [
        {
          "internalType": "uint256",
          "name": "index",
          "type": "uint256"
        }
      ],
      "name": "getParticipation",
      "outputs": [
        {
          "internalType": "address",
          "name": "",
          "type": "address"
        }
      ],
      "stateMutability": "view",
      "type": "function"
    },
    {
      "inputs": [],
      "name": "getPrevTimeStamp",
      "outputs": [
        {
          "internalType": "uint256",
          "name": "",
          "type": "uint256"
        }
      ],
      "stateMutability": "view",
      "type": "function"
    },
    {
      "inputs": [],
      "name": "getRecentWinner",
      "outputs": [
        {
          "internalType": "address",
          "name": "",
          "type": "address"
        }
      ],
      "stateMutability": "view",
      "type": "function"
    },
    {
      "inputs": [],
      "name": "getRequestConfirmations",
      "outputs": [
        {
          "internalType": "uint256",
          "name": "",
          "type": "uint256"
        }
      ],
      "stateMutability": "pure",
      "type": "function"
    },
    {
      "inputs": [],
      "name": "getState",
      "outputs": [
        {
          "internalType": "enum Raffle.State",
          "name": "",
          "type": "uint8"
        }
      ],
      "stateMutability": "view",
      "type": "function"
    },
    {
      "inputs": [],
      "name": "i_owner",
      "outputs": [
        {
          "internalType": "address payable",
          "name": "",
          "type": "address"
        }
      ],
      "stateMutability": "view",
      "type": "function"
    },
    {
      "inputs": [
        {
          "internalType": "bytes",
          "name": "",
          "type": "bytes"
        }
      ],
      "name": "performUpkeep",
      "outputs": [],
      "stateMutability": "nonpayable",
      "type": "function"
    },
    {
      "inputs": [
        {
          "internalType": "uint256",
          "name": "requestId",
          "type": "uint256"
        },
        {
          "internalType": "uint256[]",
          "name": "randomWords",
          "type": "uint256[]"
        }
      ],
      "name": "rawFulfillRandomWords",
      "outputs": [],
      "stateMutability": "nonpayable",
      "type": "function"
    }
  ],
  "transactionHash": "0x140c0658fd8cca70e54b600c4684edf115f559206a05bf809124b83523c10d93",
  "args": [
    "0x8103B0A8A00be2DDC778e6e7eaa21791Cd364625",
    "10000000000000000",
    "0x474e34a077df58807dbe9c96d3c009b23b3c6d0cce433e59bbf5b34f823bc56c",
    "5309",
    "1500000",
    "60"
  ],
  "numDeployments": 3,
  "solcInputHash": "4107d67b80e3d04864ca8fad69657534",
  "bytecode": "0x6101806040526040516200191c3803806200191c83398181016040528101906200002a9190620002bb565b858073ffffffffffffffffffffffffffffffffffffffff1660808173ffffffffffffffffffffffffffffffffffffffff1681525050508460c081815250508573ffffffffffffffffffffffffffffffffffffffff1660e08173ffffffffffffffffffffffffffffffffffffffff16815250508361012081815250508163ffffffff166101408163ffffffff16815250506000600160146101000a81548160ff02191690836001811115620000e357620000e262000357565b5b0217905550426002819055508061016081815250503373ffffffffffffffffffffffffffffffffffffffff1660a08173ffffffffffffffffffffffffffffffffffffffff16815250508267ffffffffffffffff166101008167ffffffffffffffff168152505050505050505062000386565b600080fd5b600073ffffffffffffffffffffffffffffffffffffffff82169050919050565b600062000187826200015a565b9050919050565b62000199816200017a565b8114620001a557600080fd5b50565b600081519050620001b9816200018e565b92915050565b6000819050919050565b620001d481620001bf565b8114620001e057600080fd5b50565b600081519050620001f481620001c9565b92915050565b6000819050919050565b6200020f81620001fa565b81146200021b57600080fd5b50565b6000815190506200022f8162000204565b92915050565b600067ffffffffffffffff82169050919050565b620002548162000235565b81146200026057600080fd5b50565b600081519050620002748162000249565b92915050565b600063ffffffff82169050919050565b62000295816200027a565b8114620002a157600080fd5b50565b600081519050620002b5816200028a565b92915050565b60008060008060008060c08789031215620002db57620002da62000155565b5b6000620002eb89828a01620001a8565b9650506020620002fe89828a01620001e3565b95505060406200031189828a016200021e565b94505060606200032489828a0162000263565b93505060806200033789828a01620002a4565b92505060a06200034a89828a01620001e3565b9150509295509295509295565b7f4e487b7100000000000000000000000000000000000000000000000000000000600052602160045260246000fd5b60805160a05160c05160e0516101005161012051610140516101605161151b620004016000396000818161070d015261077b01526000610ab801526000610a7401526000610a9501526000610a38015260008181610415015261068d015260006107a101526000818161035501526103a9015261151b6000f3fe6080604052600436106100dd5760003560e01c806353a2c19a1161007f57806391ad27b41161005957806391ad27b414610290578063dba6335f146102bb578063e0e10549146102e6578063fd6673f514610311576100dd565b806353a2c19a146101fc5780635f1b0fd8146102275780636e04ff0d14610252576100dd565b80634585e33b116100bb5780634585e33b14610140578063473f1ddc14610169578063499006c714610194578063535bf50f146101d1576100dd565b80631865c57d146100e25780631fe543e31461010d5780632cfcc53914610136575b600080fd5b3480156100ee57600080fd5b506100f761033c565b6040516101049190610c8c565b60405180910390f35b34801561011957600080fd5b50610134600480360381019061012f9190610e4a565b610353565b005b61013e610413565b005b34801561014c57600080fd5b5061016760048036038101906101629190610f01565b610582565b005b34801561017557600080fd5b5061017e610618565b60405161018b9190610f8f565b60405180910390f35b3480156101a057600080fd5b506101bb60048036038101906101b69190610faa565b610642565b6040516101c89190610f8f565b60405180910390f35b3480156101dd57600080fd5b506101e6610689565b6040516101f39190610fe6565b60405180910390f35b34801561020857600080fd5b506102116106b1565b60405161021e9190610fe6565b60405180910390f35b34801561023357600080fd5b5061023c6106be565b6040516102499190610fe6565b60405180910390f35b34801561025e57600080fd5b50610279600480360381019061027491906110b6565b6106cb565b604051610287929190611199565b60405180910390f35b34801561029c57600080fd5b506102a5610777565b6040516102b29190610fe6565b60405180910390f35b3480156102c757600080fd5b506102d061079f565b6040516102dd91906111ea565b60405180910390f35b3480156102f257600080fd5b506102fb6107c3565b6040516103089190610fe6565b60405180910390f35b34801561031d57600080fd5b506103266107cd565b6040516103339190610fe6565b60405180910390f35b6000600160149054906101000a900460ff16905090565b7f000000000000000000000000000000000000000000000000000000000000000073ffffffffffffffffffffffffffffffffffffffff163373ffffffffffffffffffffffffffffffffffffffff161461040557337f00000000000000000000000000000000000000000000000000000000000000006040517f1cf993f40000000000000000000000000000000000000000000000000000000081526004016103fc929190611205565b60405180910390fd5b61040f82826107d9565b5050565b7f000000000000000000000000000000000000000000000000000000000000000034101561046d576040517f534821da00000000000000000000000000000000000000000000000000000000815260040160405180910390fd5b6000600181111561048157610480610c15565b5b600160149054906101000a900460ff1660018111156104a3576104a2610c15565b5b146104da576040517f1425571c00000000000000000000000000000000000000000000000000000000815260040160405180910390fd5b6000339080600181540180825580915050600190039060005260206000200160009091909190916101000a81548173ffffffffffffffffffffffffffffffffffffffff021916908373ffffffffffffffffffffffffffffffffffffffff1602179055503373ffffffffffffffffffffffffffffffffffffffff167f634f3211e3a4e43fee5a21ad9f87ca153b300fc78b1c557a2057dbe9c63bcb4760405160405180910390a2565b600061059c604051806020016040528060008152506106cb565b5090508061060b5747600080549050600160149054906101000a900460ff1660018111156105cd576105cc610c15565b5b6040517fe5b5f0980000000000000000000000000000000000000000000000000000000081526004016106029392919061122e565b60405180910390fd5b610613610a0a565b505050565b6000600160009054906101000a900473ffffffffffffffffffffffffffffffffffffffff16905090565b600080828154811061065757610656611265565b5b9060005260206000200160009054906101000a900473ffffffffffffffffffffffffffffffffffffffff169050919050565b60007f0000000000000000000000000000000000000000000000000000000000000000905090565b6000600161ffff16905090565b6000600361ffff16905090565b6000606060008060018111156106e4576106e3610c15565b5b600160149054906101000a900460ff16600181111561070657610705610c15565b5b14905060007f00000000000000000000000000000000000000000000000000000000000000006002544261073a91906112c3565b1190506000806000805490501190506000804711905083801561075a5750825b80156107635750805b801561076c5750815b955050505050915091565b60007f0000000000000000000000000000000000000000000000000000000000000000905090565b7f000000000000000000000000000000000000000000000000000000000000000081565b6000600254905090565b60008080549050905090565b60008080549050826000815181106107f4576107f3611265565b5b60200260200101516108069190611326565b9050600080828154811061081d5761081c611265565b5b9060005260206000200160009054906101000a900473ffffffffffffffffffffffffffffffffffffffff16905080600160006101000a81548173ffffffffffffffffffffffffffffffffffffffff021916908373ffffffffffffffffffffffffffffffffffffffff1602179055506000600160146101000a81548160ff021916908360018111156108b1576108b0610c15565b5b0217905550600067ffffffffffffffff8111156108d1576108d0610d07565b5b6040519080825280602002602001820160405280156108ff5781602001602082028036833780820191505090505b5060009080519060200190610915929190610b6e565b504260028190555060008173ffffffffffffffffffffffffffffffffffffffff164760405161094390611388565b60006040518083038185875af1925050503d8060008114610980576040519150601f19603f3d011682016040523d82523d6000602084013e610985565b606091505b50509050806109c0576040517fa1d04b3900000000000000000000000000000000000000000000000000000000815260040160405180910390fd5b8173ffffffffffffffffffffffffffffffffffffffff167f7ca8a224a5c666ded68ae58d3889480f723238757e1da0fc8b7371dd5bd4466660405160405180910390a25050505050565b60018060146101000a81548160ff02191690836001811115610a2f57610a2e610c15565b5b021790555060007f000000000000000000000000000000000000000000000000000000000000000073ffffffffffffffffffffffffffffffffffffffff16635d3b1d307f00000000000000000000000000000000000000000000000000000000000000007f000000000000000000000000000000000000000000000000000000000000000060037f000000000000000000000000000000000000000000000000000000000000000060016040518663ffffffff1660e01b8152600401610af9959493929190611450565b6020604051808303816000875af1158015610b18573d6000803e3d6000fd5b505050506040513d601f19601f82011682018060405250810190610b3c91906114b8565b9050807fb67476d1d38e93caac2ca37113122e613c199269c4cea0d39c67807a6442b40a60405160405180910390a250565b828054828255906000526020600020908101928215610be7579160200282015b82811115610be65782518260006101000a81548173ffffffffffffffffffffffffffffffffffffffff021916908373ffffffffffffffffffffffffffffffffffffffff16021790555091602001919060010190610b8e565b5b509050610bf49190610bf8565b5090565b5b80821115610c11576000816000905550600101610bf9565b5090565b7f4e487b7100000000000000000000000000000000000000000000000000000000600052602160045260246000fd5b60028110610c5557610c54610c15565b5b50565b6000819050610c6682610c44565b919050565b6000610c7682610c58565b9050919050565b610c8681610c6b565b82525050565b6000602082019050610ca16000830184610c7d565b92915050565b6000604051905090565b600080fd5b600080fd5b6000819050919050565b610cce81610cbb565b8114610cd957600080fd5b50565b600081359050610ceb81610cc5565b92915050565b600080fd5b6000601f19601f8301169050919050565b7f4e487b7100000000000000000000000000000000000000000000000000000000600052604160045260246000fd5b610d3f82610cf6565b810181811067ffffffffffffffff82111715610d5e57610d5d610d07565b5b80604052505050565b6000610d71610ca7565b9050610d7d8282610d36565b919050565b600067ffffffffffffffff821115610d9d57610d9c610d07565b5b602082029050602081019050919050565b600080fd5b6000610dc6610dc184610d82565b610d67565b90508083825260208201905060208402830185811115610de957610de8610dae565b5b835b81811015610e125780610dfe8882610cdc565b845260208401935050602081019050610deb565b5050509392505050565b600082601f830112610e3157610e30610cf1565b5b8135610e41848260208601610db3565b91505092915050565b60008060408385031215610e6157610e60610cb1565b5b6000610e6f85828601610cdc565b925050602083013567ffffffffffffffff811115610e9057610e8f610cb6565b5b610e9c85828601610e1c565b9150509250929050565b600080fd5b60008083601f840112610ec157610ec0610cf1565b5b8235905067ffffffffffffffff811115610ede57610edd610ea6565b5b602083019150836001820283011115610efa57610ef9610dae565b5b9250929050565b60008060208385031215610f1857610f17610cb1565b5b600083013567ffffffffffffffff811115610f3657610f35610cb6565b5b610f4285828601610eab565b92509250509250929050565b600073ffffffffffffffffffffffffffffffffffffffff82169050919050565b6000610f7982610f4e565b9050919050565b610f8981610f6e565b82525050565b6000602082019050610fa46000830184610f80565b92915050565b600060208284031215610fc057610fbf610cb1565b5b6000610fce84828501610cdc565b91505092915050565b610fe081610cbb565b82525050565b6000602082019050610ffb6000830184610fd7565b92915050565b600080fd5b600067ffffffffffffffff82111561102157611020610d07565b5b61102a82610cf6565b9050602081019050919050565b82818337600083830152505050565b600061105961105484611006565b610d67565b90508281526020810184848401111561107557611074611001565b5b611080848285611037565b509392505050565b600082601f83011261109d5761109c610cf1565b5b81356110ad848260208601611046565b91505092915050565b6000602082840312156110cc576110cb610cb1565b5b600082013567ffffffffffffffff8111156110ea576110e9610cb6565b5b6110f684828501611088565b91505092915050565b60008115159050919050565b611114816110ff565b82525050565b600081519050919050565b600082825260208201905092915050565b60005b83811015611154578082015181840152602081019050611139565b60008484015250505050565b600061116b8261111a565b6111758185611125565b9350611185818560208601611136565b61118e81610cf6565b840191505092915050565b60006040820190506111ae600083018561110b565b81810360208301526111c08184611160565b90509392505050565b60006111d482610f4e565b9050919050565b6111e4816111c9565b82525050565b60006020820190506111ff60008301846111db565b92915050565b600060408201905061121a6000830185610f80565b6112276020830184610f80565b9392505050565b60006060820190506112436000830186610fd7565b6112506020830185610fd7565b61125d6040830184610fd7565b949350505050565b7f4e487b7100000000000000000000000000000000000000000000000000000000600052603260045260246000fd5b7f4e487b7100000000000000000000000000000000000000000000000000000000600052601160045260246000fd5b60006112ce82610cbb565b91506112d983610cbb565b92508282039050818111156112f1576112f0611294565b5b92915050565b7f4e487b7100000000000000000000000000000000000000000000000000000000600052601260045260246000fd5b600061133182610cbb565b915061133c83610cbb565b92508261134c5761134b6112f7565b5b828206905092915050565b600081905092915050565b50565b6000611372600083611357565b915061137d82611362565b600082019050919050565b600061139382611365565b9150819050919050565b6000819050919050565b6113b08161139d565b82525050565b600067ffffffffffffffff82169050919050565b6113d3816113b6565b82525050565b600061ffff82169050919050565b6113f0816113d9565b82525050565b600063ffffffff82169050919050565b61140f816113f6565b82525050565b6000819050919050565b600061143a611435611430846113d9565b611415565b6113f6565b9050919050565b61144a8161141f565b82525050565b600060a08201905061146560008301886113a7565b61147260208301876113ca565b61147f60408301866113e7565b61148c6060830185611406565b6114996080830184611441565b9695505050505050565b6000815190506114b281610cc5565b92915050565b6000602082840312156114ce576114cd610cb1565b5b60006114dc848285016114a3565b9150509291505056fea26469706673582212207bb95eb16127b6c2dd1e3b4123c88e42c4db8f3d39c243d4c7c43e4499764e5d64736f6c63430008130033",
  "devdoc": {
    "author": "Abdalrhman Mostafa & Patrick Collins",
    "details": "This implements the Chainlink VRF Version 2",
    "kind": "dev",
    "methods": {
      "checkUpkeep(bytes)": {
        "details": "This is the function that the Chainlink Keeper nodes call they look for `upkeepNeeded` to return True. the following should be true for this to return true: 1. The time interval has passed between raffle runs. 2. The lottery is open. 3. The contract has ETH. 4. Implicity, your subscription is funded with LINK."
      }
    },
    "title": "A sample Raffle Contract",
    "version": 1
  },
  "userdoc": {
    "kind": "user",
    "methods": {
      "checkUpkeep(bytes)": {
        "notice": "chainlink keeper to automaticlly trigger action and run functons depends on events or time  (keeper network automaticcly run our functions based on custome logic / time) , checkupkeep method run offchain , doesn't estimate gas from the blockchain ,  when returns it will perform upkeep on chain (generating data is off chain) argument datatype bytes means we could call even another functions"
      }
    },
    "notice": "This contract is for creating a sample raffle contract",
    "version": 1
  },
  "storageLayout": {
    "storage": [
      {
        "astId": 207,
        "contract": "contracts/Raffle.sol:Raffle",
        "label": "s_participations",
        "offset": 0,
        "slot": "0",
        "type": "t_array(t_address_payable)dyn_storage"
      },
      {
        "astId": 224,
        "contract": "contracts/Raffle.sol:Raffle",
        "label": "s_recentWinner",
        "offset": 0,
        "slot": "1",
        "type": "t_address"
      },
      {
        "astId": 227,
        "contract": "contracts/Raffle.sol:Raffle",
        "label": "s_state",
        "offset": 20,
        "slot": "1",
        "type": "t_enum(State)200"
      },
      {
        "astId": 229,
        "contract": "contracts/Raffle.sol:Raffle",
        "label": "s_prevBlockTimeStamp",
        "offset": 0,
        "slot": "2",
        "type": "t_uint256"
      }
    ],
    "types": {
      "t_address": {
        "encoding": "inplace",
        "label": "address",
        "numberOfBytes": "20"
      },
      "t_address_payable": {
        "encoding": "inplace",
        "label": "address payable",
        "numberOfBytes": "20"
      },
      "t_array(t_address_payable)dyn_storage": {
        "base": "t_address_payable",
        "encoding": "dynamic_array",
        "label": "address payable[]",
        "numberOfBytes": "32"
      },
      "t_enum(State)200": {
        "encoding": "inplace",
        "label": "enum Raffle.State",
        "numberOfBytes": "1"
      },
      "t_uint256": {
        "encoding": "inplace",
        "label": "uint256",
        "numberOfBytes": "32"
      }
    }
  }
}